:060000000A128A110C280F
:10000800FE00030EF3000A08F4000A128A111628EB
:100018000A128A110F28F001F101F20183010A1274
:100028008A116628831203138C1C1B281C28392864
:100038000130F0070318F10A0030F1078C104C303A
:1000480070067104031D29282A2839280310081C62
:10005800031403183028342883120313081437288C
:10006800831203130810F001F1018B1C3C283D2872
:100078004B280310881C03140318432847288312AD
:10008800031388144A288312031388108B100B1C3F
:100098004E284F285F280310081D031403185528FD
:1000A80059288312031308155C28831203130811B7
:1000B8000608F2000B1074088A00730E8300FE0E07
:1000C8007E0E09008130831603138600F8308800FD
:1000D800FF308312031388007F3092004830831664
:1000E80003138100D8308B00FF3092008C148312E8
:0C00F80003138C107E280A128A110C28B9
:02400E00BA3DB9
:00000001FF
