:060000000A128A110C280F
:10000800FE00030EF6000A08F7000A128A115E289D
:100018000A128A110F28F001F101F201F301F4012B
:10002800F50183010A128A1119288316031306148D
:1000380086140710013083120313870030309000B4
:100048000C10831603130C148B170B17831203134E
:1000580006182F283028422872087304031D3528F3
:10006800362842280130F2000030F300101407103F
:10007800720373040319412842283C28831203138E
:100088008618472848282A2870087104031D4D2817
:100098004E282A280130F0000030F1001014071013
:1000A80070037104031959285A2854282A280A1257
:1000B8008A110C28831203130C1C632864289128C6
:1000C8000C100130F4070318F50A0030F507720325
:1000D8007304031D702871287E2814307406750473
:1000E800031D772878287E280714F401F501F2010A
:1000F800F301101070037104031D832884289128CC
:10010800283074067504031D8A288B289128071443
:10011800F401F501F001F101101077088A00760E5C
:080128008300FE0E7E0E0900AB
:02400E00BA3DB9
:00000001FF
