:060000000A128A110E280D
:10000800FE00030EF0000A08F1007F08F2000A164D
:100018008A112E2F0A128A111128F901FA01831662
:100028000313A001A101A201A30183010A168A11E9
:10003800242E831203132D08B7008030B7052D082E
:10004800B2003207BD00AC1F2A282B282C283D14EB
:100058003D0803193028312840283D0A031D35285A
:1000680036283E280030AD000030AC000030AB0030
:100078000030AA00AC1748280030AD000030AC00B2
:100088000030AB000030AA0031088039B7063108CB
:10009800B2003207BC00B01F5228532854283C1421
:1000A8003C0803195828592868283C0A031D5D286C
:1000B8005E2866280030B1000030B0000030AF0084
:1000C8000030AE00B01770280030B1000030B0002A
:1000D8000030AF000030AE003C08031974287528C2
:1000E8007A283D08031D79287A2883280030AD0036
:1000F8000030AC000030AB000030AA005E2B2A08AC
:10010800F30030080A168A1105270A128A117408A2
:1001180083120313C3007308C2004208B200B3017C
:10012800B401B5013508BB003408BA003308B9007A
:100138003208B8004308B200B301B401B50135086C
:10014800C1003408C0003308BF003208BE002B08C5
:10015800F3002F080A168A1105270A128A11740853
:1001680083120313C3007308C2004208B200B3012C
:10017800B401B5013208B807330803110318013E6A
:100188000319C728B907340803110318013E0319D6
:10019800CE28BA07350803110318013E0319D528DC
:1001A800BB074308B200B301B401B5013208BE076A
:1001B800330803110318013E0319E328BF07340865
:1001C80003110318013E0319EA28C0073508031173
:1001D8000318013E0319F128C1072C08F3002E0863
:1001E8000A168A1105270A128A1174088312031342
:1001F800C3007308C2004208B200B301B401B501DC
:100208003208B807330803110318013E03190D29F2
:10021800B907340803110318013E03191429BA0752
:10022800350803110318013E03191B29BB074308AE
:10023800B200B301B401B5013208BE073308031197
:100248000318013E03192929BF07340803110318AD
:10025800013E03193029C007350803110318013E70
:1002680003193729C1070830B2000310B80DB90DBA
:10027800BA0DBB0DB20B39292B08F3002E080A164C
:100288008A1105270A128A11740883120313C300FE
:100298007308C2004208B2004308B300B401B501B4
:1002A8003208B807330803110318013E03195D2902
:1002B800B907340803110318013E03196429BA0762
:1002C800350803110318013E03196B29BB072A08D7
:1002D800F3002F080A168A1105270A128A117408D2
:1002E80083120313C3007308C2004208B200430814
:1002F800B300B401B5013208B80733080311031875
:10030800013E03198829B907340803110318013E6F
:1003180003198F29BA07350803110318013E031979
:100328009629BB070830B2000310B80DB90DBA0DF5
:10033800BB0DB20B98292A08F3002E080A168A1159
:1003480005270A128A11740883120313C30073085D
:10035800C2004208B2004308B300B401B501320834
:10036800B807330803110318013E0319BC29B9075C
:10037800340803110318013E0319C329BA073508C5
:1003880003110318013E0319CA29BB072B08F30000
:1003980030080A168A1105270A128A11740883126E
:1003A8000313C3007308C2004208B2004308B30035
:1003B800B401B5013208BE07330803110318013E22
:1003C8000319E729BF07340803110318013E03196D
:1003D800EE29C007350803110318013E0319F52952
:1003E800C1072C08F3002F080A168A1105270A12DC
:1003F8008A11740883120313C3007308C2004208E9
:10040800B2004308B300B401B5013208BE0733088F
:1004180003110318013E0319122ABF0734080311F8
:100428000318013E0319192AC007350803110318D8
:10043800013E0319202AC1072C08F30030080A16C8
:100448008A1105270A128A11740883120313C3003C
:100458007308C2004208B2004308B300B401B501F2
:1004680008300310B20DB30DB40DB50DFF3E031DDA
:10047800352A3208BE07330803110318013E031951
:10048800462ABF07340803110318013E03194D2AF1
:10049800C007350803110318013E0319542AC10780
:1004A8003808B2003908B3003A08B4003B08B50070
:1004B80018300310B50CB40CB30CB20CFF3E031D7E
:1004C8005D2A3208BE07330803110318013E0319D9
:1004D8006E2ABF07340803110318013E0319752A51
:1004E800C007350803110318013E03197C2AC10708
:1004F8000830B2000310B80DB90DBA0DBB0DB20B20
:100508007E2A3D083C07B200B301B30D3208823E93
:10051800C20033080318013EFF3EC300B02A013071
:10052800B2000310BE0DBF0DC00DC10DB20B952A50
:10053800BB1F9F2AA02AA12A3E140130B200031033
:10054800B80DB90DBA0DBB0DB20BA32AFF30C20707
:100558000318C30AFF30C307C01FB32AB42A932A5B
:10056800BC01BB1FB82AB92AD52AFF303805B2000A
:10057800FF303905B300FF303A05B4007F303B0542
:10058800B50035083404330432040319CC2ACD2AC3
:10059800D02A0130BC00D52A3E1CD32AD42AD52A19
:1005A800CD2A3C080319D92ADA2A0B2B0130BE07B9
:1005B800003003180130BF07003003180130C007AE
:1005C800003003180130C107411CEB2AEC2A0B2B21
:1005D8003E08B2003F08B3004008B4004108B50027
:1005E8000130B600350DB50CB40CB30CB20CB60B1B
:1005F800F62A3508C1003408C0003308BF003208A5
:10060800BE000130C2070318C30A0030C3074308FD
:10061800803AFF0080307F02031D142BFF30420216
:10062800031C172B182B232B7F3083120313C100B5
:100638008030C0000030BF000030BE00542B831251
:1006480003134308803AFF0080307F02031D2E2BDE
:10065800013042020318312B322B3E2B003083121B
:100668000313C1000030C0000030BF000030BE00DE
:10067800B701542B831203134208BD00FF30BE0597
:10068800FF30BF057F30C0050030C1053D1C4D2B34
:100698004E2B4F2BC0173D08B2000310320CC1007F
:1006A8003708C1044108AD004008AC003F08AB0062
:1006B8003E08AA00080083120313ED01EE01EF01C2
:1006C80080300A168A117A260A128A118330F600B7
:1006D8008030F7000430F8000A128A11DC270A1269
:1006E8008A1187300A168A117A260A128A11253049
:1006F8000A168A118E260A128A118B300A168A1156
:100708007A260A128A117830F6008030F700053010
:10071800F8000A128A11DC270A128A11C0300A1658
:100728008A117A260A128A116730F6008030F7009B
:100738001030F8000A128A11DC270A128A110A12EC
:100748008A1574250A128A1183120313ED004230A8
:100758006D06031DB02BB12B682C0A128A11F725E0
:100768000A128A1101300A168A117A260A128A1187
:1007780080300A168A117A260A128A118330F60006
:100788008030F7000430F8000A128A11DC270A12B8
:100798008A1187300A168A117A260A128A11253098
:1007A8000A168A118E260A128A118B300A168A11A5
:1007B8007A260A128A117830F6008030F700053060
:1007C800F8000A128A11DC270A128A11C0300A16A8
:1007D8008A117A260A128A116730F6008030F700EB
:1007E8001030F8000A128A11DC270A128A110A123C
:1007F8008A1574250A128A1183120313ED00313009
:100808006D02031C082C092C0F2C3A306D02031CB6
:100818000E2C0F2C592C0A168A1158270A128A11E5
:1008280001300A168A117A260A128A1180300A16AD
:100838008A117A260A128A118330F6008030F7006E
:100848000430F8000A128A11DC270A128A1187304C
:100858000A168A117A260A128A1125300A168A116E
:100868008E260A128A118B300A168A117A260A12E3
:100878008A117830F6008030F7000530F8000A1247
:100888008A11DC270A128A11C0300A168A117A26C0
:100898000A128A116730F6008030F7001030F8002D
:1008A8000A128A11DC270A128A11313083120313C3
:1008B8006D02031C602C612CFB2B3A306D0203186F
:1008C800662C672CFB2BBE2C31306D02031C6D2C63
:1008D8006E2C742C3A306D02031C732C742CBE2CB5
:1008E8000A168A1158270A128A1101300A168A1123
:1008F8007A260A128A1180300A168A117A260A1272
:100908008A118330F6008030F7000430F8000A12AC
:100918008A11DC270A128A1187300A168A117A2668
:100928000A128A1125300A168A118E260A128A118D
:100938008B300A168A117A260A128A117830F60044
:100948008030F7000530F8000A128A11DC270A12F5
:100958008A11C0300A168A117A260A128A1167305B
:10096800F6008030F7001030F8000A128A11DC27F0
:100978000A128A113130831203136D02031CC52C2D
:10098800C62CA32B3A306D020318CB2CCC2CA32BEE
:1009980085300A168A117A260A128A1183120313DD
:1009A8006D080A168A118E260A128A1139308312A6
:1009B80003136D06031DE12CE22CE52C3030EE000C
:1009C800512D0A128A1574250A128A1183120313EB
:1009D800EE0030306E02031CF22CF32CF92C3A3066
:1009E8006E02031CF82CF92C432D0A168A1158277D
:1009F8000A128A1101300A168A117A260A128A11F5
:100A080080300A168A117A260A128A118330F60073
:100A18008030F7000430F8000A128A11DC270A1225
:100A28008A1187300A168A117A260A128A11253005
:100A38000A168A118E260A128A118B300A168A1112
:100A48007A260A128A117830F6008030F7000530CD
:100A5800F8000A128A11DC270A128A11C0300A1615
:100A68008A117A260A128A116730F6008030F70058
:100A78001030F8000A128A11DC270A128A11303065
:100A8800831203136E02031C4A2D4B2DE52C3A30BA
:100A98006E020318502D512DE52C86300A168A1146
:100AA8007A260A128A11831203136E080A168A110B
:100AB8008E260A128A110A128A1574250A128A11B8
:100AC80083120313F00043307002031C6C2D6D2D4C
:100AD800732D45307002031C722D732DBD2D0A161F
:100AE8008A1158270A128A1101300A168A117A26A1
:100AF8000A128A1180300A168A117A260A128A1175
:100B08008330F6008030F7000430F8000A128A11AA
:100B1800DC270A128A1187300A168A117A260A12E5
:100B28008A1125300A168A118E260A128A118B30EC
:100B38000A168A117A260A128A117830F60080304D
:100B4800F7000530F8000A128A11DC270A128A1108
:100B5800C0300A168A117A260A128A116730F600FE
:100B68008030F7001030F8000A128A11DC270A12C8
:100B78008A114330831203137002031CC42DC52D40
:100B88005F2D453070020318CA2DCB2D5F2D4330E1
:100B98007006031DD02DD12DEA2D85300A168A1135
:100BA8007A260A128A1100300A168A118E260A122B
:100BB8008A1186300A168A117A260A128A1100309A
:100BC8000A168A118E260A128A11F62D6D30A8008F
:100BD8000A128A150F220A128A110A168A11C827C0
:100BE8000A128A1108000030F300F4000A168A116C
:100BF8001D260A128A1101300A168A117A260A124B
:100C08008A1180300A168A117A260A128A117E30D1
:100C1800F6008030F7000430F8000A128A11DC2749
:100C28000A128A118F300A168A117A260A128A1134
:100C38002B300A168A118E260A128A114430831222
:100C48000313C7007F30C600C030C5000030C400A1
:100C58004030AD00A030AC000030AB000030AA003E
:100C68000A168A1155260A128A117308F5007408A3
:100C7800F6000030F61BFF30F700F80001300A12CA
:100C88008A1508240A128A11780883120313B100FE
:100C98007708B0007608AF007508AE000A128A110E
:100CA8001D200A128A11831203132D08CB002C0869
:100CB800CA002B08C9002A08C8000A128A15362655
:100CC8000A128A11831203134708EB004608EA0048
:100CD8004508E9004408E8006B08E1006A08E000FC
:100CE8006908DF006808DE000A128A15BE240A12A5
:100CF8008A11C0300A168A117A260A128A116730B8
:100D0800F6008030F7001030F8000A128A11DC274C
:100D18000A128A110A128A15F4220A128A118312F7
:100D28000313EC0080300A168A117A260A128A11F7
:100D38007E30F6008030F7000430F8000A128A117D
:100D4800DC270A128A118F300A168A117A260A12AB
:100D58008A110A168A1116260A128A11730874044F
:100D6800031DB72EB82EBF2E2B300A168A118E26D9
:100D78000A128A11D02E0A168A1116260A128A1108
:100D880073037404031DC92ECA2ED02E2D300A16E3
:100D98008A118E260A128A11443083120313C7005F
:100DA8007F30C600C030C5000030C4004030AD0000
:100DB800A030AC000030AB000030AA000A168A113F
:100DC80055260A128A117308F5007408F6000030D7
:100DD800F61BFF30F700F80001300A128A150824C4
:100DE8000A128A11780883120313B1007708B00039
:100DF8007608AF007508AE000A128A111D200A1283
:100E08008A11831203132D08CB002C08CA002B0863
:100E1800C9002A08C8000A128A1536260A128A1139
:100E2800831203134708EB004608EA004508E90067
:100E38004408E8006B08E1006A08E0006908DF0080
:100E48006808DE000A128A15BE240A128A112330A5
:100E5800831203136C06031D322F332F392F0A1602
:100E68008A1144260A128A11D32F2A306C06031DD0
:100E78003E2F3F2F452F0A128A156F230A128A1117
:100E8800D32F41306C0603194A2F4B2FD32F6D30C7
:100E98006C060319502F512FD32F0A168A11582781
:100EA8000A128A1180300A168A117A260A128A11C1
:100EB8007E30F6008030F7000430F8000A128A11FC
:100EC800DC270A128A11443083120313C7007F30CB
:100ED800C600C030C5000030C4004030AD00A030AE
:100EE800AC000030AB000030AA000A168A11552663
:100EF8000A128A117308F5007408F6000030F61B10
:100F0800FF30F700F80001300A128A1508240A1287
:100F18008A11780883120313B1007708B0007608A5
:100F2800AF007508AE000A128A111D200A128A1134
:100F3800831203132D08CB002C08CA002B08C90004
:100F48002A08C8000A128A1536260A128A1183123C
:100F580003134708EB004608EA004508E90044087F
:100F6800E8006B08E1006A08E0006908DF0068082B
:100F7800DE000A128A15BE240A128A11C0300A1627
:100F88008A117A260A128A116730F6008030F70033
:100F98001030F8000A128A11DC270A128A1141302F
:100FA800831203136C06031DDA2FDB2F8E2E080025
:100FB80083120313A001F52F200876078400770811
:100FC8000318770AFF000A128A1500200A128A11EC
:100FD8000A168A118E260A128A1101308312031307
:100FE800A00778082002031CFA2FFB2FE02F080027
:10100000FF1B0A2883137F1883170008840A03191B
:10101000FF0A080008308A000408840A82070034A6
:10102000203449344E34563441344C3449344434F9
:1010300020342034563441344C3455344534203433
:1010400000342D342D3420344D3449344E34203482
:101050004C3449344D344934543420342D342D34F7
:101060002D3400342D342D3420344D344134583453
:1010700020344C3449344D344934543420342D34E4
:101080002D342D3400342D342D342D342D34203492
:10109000203444344F344E344534203420342D34FD
:1010A0002D342D342D3400342D342D34203452344D
:1010B00045344134433448344534443420342D34A9
:1010C0002D342D342D342D3400342D342D342D3445
:1010D0002D342D34203449344E34493454342034A2
:1010E0002D342D342D342D342D3400342D342D3425
:1010F0002D342D342D342D342D342D342D342D34E8
:101100002D342D342D342D342D342D340034313400
:1011100030342D34393430340034413444344334A1
:101120003A340034503457344D343A340034203497
:08113000563400342E34003463
:10113A009930831203139F008230831603139F0092
:10114A000800F601F701C22883160313A201A301BE
:10115A00831603132308803AFF0080307F02031DA1
:10116A00B82808302202031CBB28BC28AD2801304D
:10117A00F6070318F70A0030F7077708803AF500F0
:10118A007408803A7502031DCC2873087602031C82
:10119A00CF28D028A928080080300A168A117A2672
:1011AA000A128A155630F6008030F7001030F8001F
:1011BA000A128A11DC270A128A15C0300A168A1105
:1011CA007A260A128A156730F6008030F700103046
:1011DA00F8000A128A11DC270A128A150A30F3006B
:1011EA000030F4000A128A15A6200A128A15013064
:1011FA000A168A117A260A128A150530F300003077
:10120A00F4000A128A15A6200A128A150800831207
:10121A000313A501A601200821040319152916297B
:10122A004B290130A400222901300310A00DA10D81
:10123A00FF3E031D1A290130A407A11F25292629CB
:10124A00192901300310A50DA60DFF3E031D2729FC
:10125A0021082302031D332920082202031C3629F0
:10126A0037293E292008A2022108031CA303A3024E
:10127A00251401300310A10CA00CFF3E031D3F29C9
:10128A000130A402031D4A294B2926292608A10058
:10129A002508A000080001300A168A117A260A12C7
:1012AA008A1580300A168A117A260A128A150A16AF
:1012BA008A1116260A128A1573087404031D6629F0
:1012CA00672973292330F6008030F7001030F800C0
:1012DA000A128A11DC270A128A1589290A168A1122
:1012EA0016260A128A1573037404031D7D297E29A2
:1012FA0089291230F6008030F7001030F8000A12FF
:10130A008A11DC270A128A15C0300A168A117A262F
:10131A000A128A154530F6008030F7001030F800BE
:10132A000A128A11DC270A128A150530F3000030E6
:10133A00F4000A128A15A6200A128A1501300A1622
:10134A008A117A260A128A15080083120313A50144
:10135A00A11FB029B129B829A009A109A00A031916
:10136A00A10A0130A500A31FBB29BC29C329A209D0
:10137A00A309A20A0319A30A0130A506A601A70117
:10138A00200821040319CA29CB29002A0130A40004
:10139A00D72901300310A00DA10DFF3E031DCF294F
:1013AA000130A407A11FDA29DB29CE290130031055
:1013BA00A60DA70DFF3E031DDC2921082302031DEC
:1013CA00E82920082202031CEB29EC29F32920082A
:1013DA00A2022108031CA303A3022614013003104E
:1013EA00A10CA00CFF3E031DF4290130A402031D29
:1013FA00FF29002ADB2925080319042A052A0A2AB3
:10140A00A609A709A60A0319A70A2708A1002608F8
:10141A00A00008008312031328088400831300081D
:10142A00A900AA012908F3002A08F4000A30F500E5
:10143A000030F6000A168A11BB260A128A15831290
:10144A000313280A8400831300087307AC000030D2
:10145A00031801307407AD002130A0000030A1004C
:10146A002D08F4002C08F300FF30F5000030F600D8
:10147A000A168A11BB260A128A15740883120313E4
:10148A00A3007308A2000A128A15AA210A128A1551
:10149A00831203132108AF002008AE002F08FA00B8
:1014AA002E08F9002F08AA002E08A9002A0DAA0C56
:1014BA00A90C2A0DAA0CA90C290895002F08AA0024
:1014CA002E08A9002A0DAA0CA90C29080139AB007B
:1014DA00AB0EAB0D17082B06DF392B0697002E082B
:1014EA000139A900A90E17082906EF39290697001C
:1014FA000800031083120313460D470DCD004D0853
:10150A00031D882A892A922A0030C7000030C600A3
:10151A000030C5000030C400F32A4408C80045085A
:10152A00C9004608CA004708CB001F300310CB0C7D
:10153A00CA0CC90CC80CFF3E031D9B2A4808CC00E4
:10154A00C617FF30C405FF30C505FF30C605003099
:10155A00C7059630CD02CD1FB32AB42ACC2A4D082E
:10156A00803A973E0318BA2ABB2ABC2A892A013034
:10157A000310C70CC60CC50CC40CFF3E031DBD2AC4
:10158A000130CD07031DCA2ACB2ABC2AE32A203000
:10159A004D02031CD12AD22ADE2A892A0130C80028
:1015AA000310C40DC50DC60DC70DC80BD52A0130D1
:1015BA00CD024D08031DE22AE32AD32A4C08031957
:1015CA00E72AE82AF32AC409C509C609C709C40AC9
:1015DA000319C50A0319C60A0319C70A08006D3098
:1015EA00F300EF308312031386000618FD2AFE2A41
:1015FA00012B2A30F300152B8618042B052B082BF8
:10160A003030F300152B06190B2B0C2B0F2B233024
:10161A00F300152B8619122B132B152B4430F300CC
:10162A00DF30860006181A2B1B2B1E2B3730F300CF
:10163A00322B8618212B222B252B3830F300322B04
:10164A000619282B292B2C2B3930F300322B86191B
:10165A002F2B302B322B4330F300BF308600061875
:10166A00372B382B3B2B3430F3004F2B86183E2B6D
:10167A003F2B422B3530F3004F2B0619452B462BB7
:10168A00492B3630F3004F2B86194C2B4D2B4F2B01
:10169A004230F3007F3086000618542B552B582B06
:1016AA003130F3006D2B86185B2B5C2B5F2B3230AD
:1016BA00F3006D2B0619622B632B662B3330F30074
:1016CA006D2B8619692B6A2B6D2B4130F3006D2B1C
:1016DA00730808000A168A1116260A128A15730850
:1016EA007404031D792B7A2BBE2B7A08803AFF00EB
:1016FA0083307F02031D832B1D307902031C862B46
:10170A00872B8D2B0A128A1550210A128A15072C4B
:10171A0079080A3EF9007A080318013E003EFA00E9
:10172A007A0883120313A2007908A100220DA20CE1
:10173A00A10C220DA20CA10C210895007A08A20086
:10174A007908A100220DA20CA10C21080139A300DD
:10175A00A30EA30D17082306DF392306970079087D
:10176A000139A100A10E17082106EF3921069700B9
:10177A00072C0A168A1116260A128A15730374048C
:10178A00031DC82BC92B072C7A08803AFF0080302A
:10179A007F02031DD22BC93079020318D52BD62B11
:1017AA00D72B872B7908F63EF9007A080318013EF1
:1017BA00FF3EFA007A0883120313A2007908A100F7
:1017CA00220DA20CA10C220DA20CA10C210895003D
:1017DA007A08A2007908A100220DA20CA10C210806
:1017EA000139A300A30EA30D17082306DF39230628
:1017FA00970079080139A100A10E17082106EF39CF
:10180A0021069700080083120313A4002408031971
:10181A000F2C102C242CF81F132C142C242C750993
:10182A00A6007609A7007709A8007809A900A60AE0
:10183A000319A70A0319A80A0319A90A2C2C78085C
:10184A00A9007708A8007608A7007508A6007808F6
:10185A00770476047504031D332C342C3D2C003098
:10186A00F8000030F7000030F6000030F500BD2C1B
:10187A009630A5004B2C0130A50701300310A90CA6
:10188A00A80CA70CA60CFF3E031D432CFE3029050D
:10189A00031D502C512C402C6B2C0130A507013014
:1018AA00A607003003180130A707003003180130DB
:1018BA00A807003003180130A90701300310A90C4A
:1018CA00A80CA70CA60CFF3E031D632CFF302905AC
:1018DA00031D702C712C522C7D2C0130A502013075
:1018EA00A0000310A60DA70DA80DA90DA00B762C1C
:1018FA00A81B802C812C872C023025020318862CE9
:10190A00872C722C25188A2C8B2C932CFF30A60539
:10191A00FF30A7057F30A805FF30A9050310A50CE5
:10192A002508A000A101A201A30118300310A00DEF
:10193A00A10DA20DA30DFF3E031D9B2C2008A6049A
:10194A002108A7042208A8042308A90424080319C3
:10195A00AF2CB02CB52CF81FB32CB42CB52CA9176E
:10196A002908F8002808F7002708F6002608F500D5
:10197A000800831203136108B1006008B0005F0811
:10198A00AF005E08AE004230AD00C830AC00003097
:10199A00AB000030AA000A128A111D200A128A1509
:1019AA00831203132D08C7002C08C6002B08C50094
:1019BA002A08C4000A128A157E220A128A1583127C
:1019CA0003134508E7004408E6006430A00000302D
:1019DA00A1006708A3006608A2000A128A150C2152
:1019EA000A128A15831203132008303EE2000A30D5
:1019FA00A0000030A1006708F6006608F500643010
:101A0A00F3000030F4000A168A1190270A128A1588
:101A1A00740883120313A3007308A2000A128A151A
:101A2A000C210A128A15831203132008303EE300A0
:101A3A000A30F3000030F4006708F6006608F50083
:101A4A000A168A1190270A128A157308303E8312E1
:101A5A000313E40085300A168A117A260A128A15B7
:101A6A006230F6000030F700F801F80A0A128A110B
:101A7A00DC270A128A1506300A168A117A260A12F1
:101A8A008A158B30F6008030F700F801F80A0A123E
:101A9A008A11DC270A128A1506300A168A117A2652
:101AAA000A128A156330F6000030F7000230F80097
:101ABA000A128A11DC270A128A1506300A168A11B6
:101ACA007A260A128A158830F6008030F70002302A
:101ADA00F8000A128A11DC270A128A150800F30193
:101AEA00EF3083120313860006187C2D7D2D842D7A
:101AFA002A30F300061C822D832D7F2D342E861862
:101B0A00872D882D8F2D3030F300861C8D2D8E2D3C
:101B1A008A2D342E0619922D932D9A2D2330F300F7
:101B2A00061D982D992D952D342E86199D2D9E2DA5
:101B3A00A52D4430F300861DA32DA42DA02D342EEF
:101B4A00DF3086000618AA2DAB2DB22D3730F300F0
:101B5A00061CB02DB12DAD2D342E8618B52DB62DFF
:101B6A00BD2D3830F300861CBB2DBC2DB82D342E6C
:101B7A000619C02DC12DC82D3930F300061DC62DFA
:101B8A00C72DC32D342E8619CB2DCC2DD32D433002
:101B9A00F300861DD12DD22DCE2D342EBF308600D6
:101BAA000618D82DD92DE02D3430F300061CDE2D71
:101BBA00DF2DDB2D342E8618E32DE42DEB2D353069
:101BCA00F300861CE92DEA2DE62D342E0619EE2D9A
:101BDA00EF2DF62D3630F300061DF42DF52DF12DDF
:101BEA00342E8619F92DFA2D012E4230F300861D66
:101BFA00FF2D002EFC2D342E7F3086000618062E6F
:101C0A00072E0E2E3130F300061C0C2E0D2E092E37
:101C1A00342E8618112E122E192E3230F300861CFD
:101C2A00172E182E142E342E06191C2E1D2E242E75
:101C3A003330F300061D222E232E1F2E342E861932
:101C4A00272E282E2F2E4130F300861D2D2E2E2EC4
:101C5A002A2E342E73080319332E342E752D730849
:101C6A000800831203134B08D5008030D5054B08B2
:101C7A00CC004C07DC00CA1F432E442E452E5C14B0
:101C8A005C080319492E4A2E5A2E5C0A031D4E2E51
:101C9A004F2E572E0030CB000030CA000030C9004A
:101CAA000030C800CA17CB01622E0030CB000030CA
:101CBA00CA000030C9000030C80047088039D5067C
:101CCA004708CC004C07DD00C61F6C2E6D2E6E2E09
:101CDA005D145D080319722E732E832E5D0A031D8F
:101CEA00772E782E802E0030C7000030C6000030D4
:101CFA00C5000030C400C617C7018B2E0030C700CC
:101D0A000030C6000030C5000030C4004708460451
:101D1A0045044404031D922E932EAA2E0030CB00B4
:101D2A000030CA000030C9000030C8008030CA0440
:101D3A007F30CB045508CB044B08C7004A08C600BD
:101D4A004908C5004808C400FF2F5C08031DAE2ED1
:101D5A00AF2EB82E0030C7000030C6000030C500D4
:101D6A000030C400FF2F5C08CC00CD014D08CF0025
:101D7A005D084C02CE00031CCF034E087F3ED600FE
:101D8A004F080318013E003ED7004B08D4004A080A
:101D9A00D3004908D2004808D1000030CB000030F7
:101DAA00CA000030C9000030C8000030DB00003033
:101DBA00DA000030D9000030D800DD012C2F5D0890
:101DCA000319E82EE92E092F0130CC000310D10D9A
:101DDA00D20DD30DD40DCC0BEB2E0130CC00031059
:101DEA00C80DC90DCA0DCB0DCC0BF42EDB1FFE2E70
:101DFA00FF2E002F48140130CC000310D80DD90D46
:101E0A00DA0DDB0DCC0B022F47085402031D172FE6
:101E1A0046085302031D172F45085202031D172FA8
:101E2A0044085102031C1A2F1B2F2A2F5B17440840
:101E3A00D1024508031C450FD2024608031C460F6F
:101E4A00D3024708031C470FD4020130DD071A30BA
:101E5A005D02031C312F322FE42E5408530452041E
:101E6A0051040319392F3A2F592F5814592F013079
:101E7A00CC000310C80DC90DCA0DCB0DCC0B3E2FDB
:101E8A00DB1F482F492F4A2F48140130CC0003107A
:101E9A00D80DD90DDA0DDB0DCC0B4C2FFF30D60740
:101EAA000318D70AFF30D707CA1F5C2F5D2F3C2FB4
:101EBA00DD01DB1F612F622F7E2FFF305805CC001A
:101ECA00FF305905CD00FF305A05CE007F305B0543
:101EDA00CF004F084E044D044C040319752F762F7A
:101EEA00792F0130DD007E2F481C7C2F7D2F7E2F1D
:101EFA00762F5D080319822F832FB42F0130C8076C
:101F0A00003003180130C907003003180130CA072E
:101F1A00003003180130CB074B1C942F952FB42F98
:101F2A004808CC004908CD004A08CE004B08CF002B
:101F3A000130D0004F0DCF0CCE0CCD0CCC0CD00BF9
:101F4A009F2F4F08CB004E08CA004D08C9004C0805
:101F5A00C8000130D6070318D70A0030D707570838
:101F6A00803AFF0080307F02031DBD2FFF305602EA
:101F7A00031CC02FC12FCF2FFF3083120313D600AB
:101F8A000030D7000030CB000030CA000030C90052
:101F9A000030C800831203135708803AFF008030CC
:101FAA007F02031DDA2F013056020318DD2FDE2FC0
:101FBA00EB2F83120313D601D7010030CB00003078
:101FCA00CA000030C9000030C800D50183120313CB
:101FDA005608DC005C1CF22FF32FF52FCA17F72FD7
:101FEA007F30CA055C08CC0003104C0CCB005508A6
:061FFA00CB04A12E08003B
:102C2C00831603132108F4002008F300080074082D
:102C3C0083160313A1007308A00008000A168A115A
:102C4C00E0260A168A110A128A110E28FF30831602
:102C5C00031385000F3086000711071488018901C2
:102C6C00080083160313811281110730810483122B
:102C7C00031381018B160B118B170800831603139A
:102C8C002008210403194B2E4D2E01304E2E0030FE
:102C9C00F300F4017308A0007408A1000800C5300B
:102CAC00831203139F0518309F041F151F195F2EE5
:102CBC00602E5C2E1E08F400831603131E08F3000E
:102CCC0008000C30831203139700FF308316031394
:102CDC00920004308312031392001215950183168F
:102CEC000313A001A1010800F5007508831203135A
:102CFC008800091089142130F4007630F300F30BAE
:102D0C00852EF40B852E0000831203138910080006
:102D1C00F5007508831203138800091489142130F7
:102D2C00F4007630F300F30B992EF40B992E00007F
:102D3C00831203138910080038300A168A117A2678
:102D4C000A168A1106300A168A117A260A168A1170
:102D5C000C300A168A117A260A168A1101300A16C4
:102D6C008A117A260A168A110800F701F801731CD9
:102D7C00C02EC12EC72E7508F7070318F80A76085F
:102D8C00F80701300310F50DF60DFF3E031DC82E9C
:102D9C0001300310F40CF30CFF3E031DCF2E73080F
:102DAC007404031DDA2EDB2EBD2E7808F400770890
:102DBC00F30008000A168A112C260A168A110A1624
:102DCC008A11A2260A168A110A128A159D200A1641
:102DDC008A110A168A1167260A168A110A168A118E
:102DEC0037260A168A110A128A15D1200A168A1158
:102DFC000A128A115F230A168A11FE2E080083120A
:102E0C000313A400A001A1017308F500F6017508D5
:102E1C00A2007608A300241C142F152F1B2F2208A8
:102E2C00A0070318A10A2308A10701300310A20D63
:102E3C00A30DFF3E031D1C2F0310A40C2408031D1F
:102E4C00282F292F112F2108F4002008F300080047
:102E5C000B1D312F322F4F2F8312031381010130A1
:102E6C0083160313A2070318A30A0030A307230831
:102E7C00803AFF0080307F02031D462F4D30220226
:102E8C00031C492F4A2F4E2F83160313A201A301B3
:102E9C000B117208FF0071088A00700E8300FE0E81
:102EAC007E0E090001300A168A117A260A168A113A
:102EBC0080300A168A117A260A168A110130F60019
:102ECC008030F7001030F8000A128A11DC270A163D
:102EDC008A11C0300A168A117A260A168A116730AE
:102EEC00F6008030F7001030F8000A128A11DC2747
:102EFC000A168A110530F3000030F4000A128A1504
:102F0C00A6200A168A1101300A168A117A260A1688
:102F1C008A110800730874040319952F962FC32F78
:102F2C000130F700A22F01300310F30DF40DFF3E1A
:102F3C00031D9A2F0130F707F41FA52FA62F992FE9
:102F4C0074087602031DAC2F73087502031CAF2F97
:102F5C00B02FB62F7308F5027408031CF603F602A3
:102F6C0001300310F40CF30CFF3E031DB72F01309E
:102F7C00F702031DC22FC32FA62F7608F400750885
:102F8C00F300080001300A168A117A260A168A11F3
:102F9C0080300A168A117A260A168A113430F60005
:102FAC008030F7001030F8000A128A11DC270A165C
:102FBC008A11C0300A168A117A260A168A116730CD
:102FCC00F6008030F7001030F8000A128A11DC2766
:102FDC000A168A110530F3000030F4000A128A1523
:102FEC00A6200A168A1101300A168A117A260A16A8
:042FFC008A1108002E
:02400E00BA3DB9
:00000001FF
