:100000000A128A11EC2F00308A000408840A820741
:0800100000342534783400347B
:10093800080064008001840A0406031900340406D0
:100948009E2CF2007208831203138800091489147C
:100958002130F1007630F000F00BB02CF10BB02C08
:1009680000008312031389100800F2007208831232
:1009780003138800091089142130F1007630F00043
:10098800F00BC42CF10BC42C000083120313891044
:10099800080038300A128A11B9240A128A1106305E
:1009A8000A128A11B9240A128A110C300A128A1101
:1009B800B9240A128A1101300A128A11B9240A12BA
:1009C8008A110800333083120313B6003108B700C8
:1009D8000030B800B901BA01C001C1013730AD001B
:1009E8000030AE003208AF003630B0000A128A116B
:1009F80009250A128A118312031339083107B50031
:100A080035088400831380010800831203132F081C
:100A1800FD001D2D831203132D08A0002E08A10030
:100A28007D30A2003008A3000A128A11C8250A12D4
:100A38008A117D0884000A128A1103200A128A1179
:100A4800003A031D282D292D0E2D83120313AD0105
:100A5800AE010800720873040319332D342D3A2DA2
:100A680072087304031D392D3A2D412D70080A129E
:100A78008A119C240A128A11C72D7208093EF400B3
:100A880073080318013E003EF500740884008317BC
:100A9800751C83130008F600840A0008F70076081E
:100AA80077040319582D592D8B2D7208093EF4002F
:100AB80073080318013E003EF5007408840083178C
:100AC800751C83130008F600840A0008F7007208F2
:100AD800023EF80073080318013E003EF90078084A
:100AE80084008317791C83130008FA00840A00081D
:100AF800FB007B08803AFC007708803A7C02031DE3
:100B0800872D76087A0203188A2D8B2DC72D720837
:100B180084008317731C83130008F400840A0008F8
:100B2800F5007208023EF60073080318013E003E05
:100B3800F700760884008317771C8313000874076E
:100B4800F9007508F8000318F80A801FAC2DF8039F
:100B58007808FA007908840083177A1C83137008D0
:100B680080007208023EF40073080318013E003E3C
:100B7800F500740884008317751C831301308007FF
:100B8800840A0318800A08008312031322088400C9
:100B9800000884000A128A1103200A128A11253AD1
:100BA800031DD72DD82D642E22088400013080071C
:100BB800CC01CD010030D000FF30CE00FF30CF0097
:100BC800220884000008AB002B0884000A128A114E
:100BD80003200A128A11783A031DF32DF42D5D2E95
:100BE8002308840083130008A40002308007240827
:100BF80084000008A600840A0008A70022088400D0
:100C08002B08013E8000522E2030AC002608AA0096
:100C18000F30AA050A302A020318132E142E172E95
:100C28003030AA07192E5730AA070130AC022C0819
:100C3800A03E84002A08800004300310A70CA60CEC
:100C4800FF3E031D212E2608270403192C2E2D2EC6
:100C58004B2E2C08031D312E322E0A2E4B2E2C081B
:100C6800A03E840083130008A400A5012408F00016
:100C78002508F1002008F2002108F3000A128A1161
:100C88002E250A128A11013083120313AC07203073
:100C98002C06031D502E512E332E7D2E2B0884003A
:100CA8000A128A1103200A128A11783A0319082EA7
:100CB8005D2E8312031322088400013080077D2EE5
:100CC80022088400000884000A128A1103200A12EC
:100CD8008A11A400A5012408F0002508F1002008C5
:100CE800F2002108F3000A128A112E250A128A112D
:100CF8005D2E0800FF3083160313860089018801E2
:100D0800F03087000A128A11CD240A128A11803025
:100D18000A128A11B9240A128A1183120313C5010F
:100D2800C601FE30831203138700C901CA01C70137
:100D3800C801831203130618A22EA32EDA2E02303E
:100D480083120313C4004530C300A930C200C20B8C
:100D5800AB2EC30BAB2EC40BAB2E8312031306189A
:100D6800B62EB72EDA2E4B30B1000130B2004A0849
:100D7800B4004908B3000A128A11E6240A128A113B
:100D8800831203134B080A128A11A5240A128A1126
:100D980006300A128A11B9240A128A110130831204
:100DA8000313C5070318C60A0030C6078618DD2EC8
:100DB800DE2E192F023083120313C4004530C300FE
:100DC800A930C200C20BE62EC30BE62EC40BE62EDA
:100DD800831203138618F12EF22E192F4B30B1000F
:100DE8000130B2004908013EB3004A080318013E29
:100DF800003EB4000A128A11E6240A128A118312EC
:100E080003134B080A128A11A5240A128A11063004
:100E18000A128A11B9240A128A11013083120313A3
:100E2800C5070318C60A0030C60706191C2F1D2F50
:100E3800582F023083120313C4004530C300A93071
:100E4800C200C20B252FC30B252FC40B252F8312DD
:100E580003130619302F312F582F4B30B1000130B2
:100E6800B2004908023EB3004A080318013E003E9A
:100E7800B4000A128A11E6240A128A118312031393
:100E88004B080A128A11A5240A128A1106300A127E
:100E98008A11B9240A128A11013083120313C50773
:100EA8000318C60A0030C60786195B2F5C2F972FD8
:100EB800023083120313C4004530C300A930C200B6
:100EC800C20B642FC30B642FC40B642F831203134C
:100ED80086196F2F702F972F4B30B1000130B20059
:100EE8004908033EB3004A080318013E003EB40017
:100EF8000A128A11E6240A128A11831203134B0874
:100F08000A128A11A5240A128A1106300A128A11B5
:100F1800B9240A128A11013083120313C507031872
:100F2800C60A0030C607103045064604031D9D2F2B
:100F38009E2FA42FC0300A128A11B9240A128A11CE
:100F480021308312031345064604031DAC2FAD2F31
:100F5800BB2FC501C60101300A128A11B9240A1231
:100F68008A1180300A128A11B9240A128A1183124E
:100F780003130708C20042078700013087074808A3
:100F8800C3004708C2000310C20DC30D0310C20DF1
:100F9800C30D4208043EC90043080318013E003E41
:100FA800CA000130C7070318C80A0030C807480834
:100FB800803AFF0080307F02031DE42F043047028F
:100FC800031CE72FE82F9D2E952E0A128A11002860
:100FD80083120313CC01CD01CE01CF01D0018313BD
:100FE800A0308400C0300A128A119D240A128A1186
:080FF80083010A128A117E2E0A
:02400E00BA3DB9
:00000001FF
