:060000000A128A11FC2F18
:100010007008710403190D280E283B280130F400E4
:100020001A2801300310F00DF10DFF3E031D1228B8
:100030000130F407F11F1D281E28112871087302D2
:10004000031D242870087202031C272828282E2844
:100050007008F2027108031CF303F302013003106D
:10006000F10CF00CFF3E031D2F280130F402031D9C
:100070003A283B281E287308F1007208F000080097
:10008000F901FA01750876040319472848287D28E4
:100090000130FB00542801300310F50DF60DFF3E32
:1000A000031D4C280130FB07F61F572858284B2802
:1000B00001300310F90DFA0DFF3E031D5928760893
:1000C0007802031D652875087702031C68286928D3
:1000D00070287508F7027608031CF803F8027914F3
:1000E00001300310F60CF50CFF3E031D71280130A2
:1000F000FB02031D7C287D2858287A08F600790821
:10010000F50008000310831203133C0D3D0DC300DE
:100110004308031D8C288D2896280030BD00003030
:10012000BC000030BB000030BA00F7283A08BE001F
:100130003B08BF003C08C0003D08C1001F30031051
:10014000C10CC00CBF0CBE0CFF3E031D9F283E0817
:10015000C200BC17FF30BA05FF30BB05FF30BC053D
:100160000030BD059630C302C31FB728B828D02879
:100170004308803A973E0318BE28BF28C0288D2820
:1001800001300310BD0CBC0CBB0CBA0CFF3E031DB0
:10019000C1280130C307031DCE28CF28C028E72877
:1001A00020304302031CD528D628E2288D280130B0
:1001B000BE000310BA0DBB0DBC0DBD0DBE0BD92882
:1001C0000130C3024308031DE628E728D728420868
:1001D0000319EB28EC28F728BA09BB09BC09BD09AB
:1001E000BA0A0319BB0A0319BC0A0319BD0A08009D
:1001F00083160313880189010A128A15A2270A129D
:100200008A1180300A128A157A270A128A1101305F
:10021000F3008030F4000830F5000A128A15BB277D
:100220000A128A110A128A155F270A128A110A1203
:100230008A1568270A128A11710883120313DC00D9
:100240007008DB004430BD007F30BC00C030BB0014
:100250000030BA004030A300A030A2000030A1005E
:100260000030A0005B08F0005C08F1000030F11BDA
:10027000FF30F200F30001300A128A1188210A12BD
:100280008A11730883120313A7007208A60071086D
:10029000A5007008A4000A128A11BA240A128A1151
:1002A000831203132308C1002208C0002108BF00E5
:1002B0002008BE000A128A11F0220A128A11831243
:1002C00003133D08DA003C08D9003B08D8003A087F
:1002D000D7005A08C7005908C6005808C500570873
:1002E000C4000A128A113C220A128A1103308312B6
:1002F0000313D6008A30D5005530D400D40B7E29A4
:10030000D50B7E29D60B7E2917290A128A110028BF
:10031000F800780803198D298E29A229F31F912945
:100320009229A2297009FA007109FB007209FC00E8
:100330007309FD00FA0A0319FB0A0319FC0A0319E1
:10034000FD0AAA297308FD007208FC007108FB0071
:100350007008FA007308720471047004031DB12957
:10036000B229BB290030F3000030F2000030F10068
:100370000030F0003B2A9630F900C9290130F90716
:1003800001300310FD0CFC0CFB0CFA0CFF3E031DAE
:10039000C129FE307D05031DCE29CF29BE29E929BB
:1003A0000130F9070130FA07003003180130FB076C
:1003B000003003180130FC07003003180130FD073E
:1003C00001300310FD0CFC0CFB0CFA0CFF3E031D6E
:1003D000E129FF307D05031DEE29EF29D029FB29F6
:1003E0000130F9020130F4000310FA0DFB0DFC0D91
:1003F000FD0DF40BF429FC1BFE29FF29052A023010
:1004000079020318042A052AF0297918082A092AEA
:10041000112AFF30FA05FF30FB057F30FC05FF3065
:10042000FD050310F90C7908F400F501F601F70158
:1004300018300310F40DF50DF60DF70DFF3E031DFA
:10044000192A7408FA047508FB047608FC04770876
:10045000FD04780803192D2A2E2A332AF31F312A86
:10046000322A332AFD177D08F3007C08F2007B084E
:10047000F1007A08F0000800831203134708A70070
:100480004608A6004508A5004408A4004230A30081
:10049000C830A2000030A1000030A0000A128A116A
:1004A000BA240A128A11831203132308BD002208FA
:1004B000BC002108BB002008BA000A128A11822061
:1004C0000A128A11831203133B08CD003A08CC00AC
:1004D0006430F5000030F6004D08F8004C08F700D5
:1004E0000A128A1140200A128A117508303E8312BE
:1004F0000313C8000A30F5000030F6004D08F30081
:100500004C08F2006430F0000030F1000A128A1149
:1005100008200A128A117108F8007008F7000A1200
:100520008A1140200A128A117508303E8312031383
:10053000C9000A30F0000030F1004D08F3004C080B
:10054000F2000A128A1108200A128A117008303E3D
:1005500083120313CA0088300A128A157A270A12F6
:100560008A114830F3000030F400F501F50A0A1250
:100570008A15BB270A128A1106300A128A157A27B1
:100580000A128A110D30F3008030F400F501F50AEB
:100590000A128A15BB270A128A1106300A128A1516
:1005A0007A270A128A114930F3000030F400023031
:1005B000F5000A128A15BB270A128A1106300A12A0
:1005C0008A157A270A128A110A30F3008030F40063
:1005D0000230F5000A128A15BB270A128A11080098
:1005E000831203134108CB008030CB054108C200C1
:1005F0004207D200C01FFD2AFE2AFF2A52145208C9
:100600000319032B042B142B520A031D082B092B4F
:10061000112B0030C1000030C0000030BF0000309E
:10062000BE00C017C1011C2B0030C1000030C0004B
:100630000030BF000030BE003D088039CB063D08C9
:10064000C2004207D300BC1F262B272B282B531494
:10065000530803192C2B2D2B3D2B530A031D312B33
:10066000322B3A2B0030BD000030BC000030BB0004
:100670000030BA00BC17BD01452B0030BD00003072
:10068000BC000030BB000030BA003D083C043B0415
:100690003A04031D4C2B4D2B642B0030C10000305D
:1006A000C0000030BF000030BE008030C0047F308A
:1006B000C1044B08C1044108BD004008BC003F080C
:1006C000BB003E08BA00B92C5208031D682B692BE9
:1006D000722B0030BD000030BC000030BB00003089
:1006E000BA00B92C5208C200C3014308C500530820
:1006F0004202C400031CC50344087F3ECC004508E9
:100700000318013E003ECD004108CA004008C90060
:100710003F08C8003E08C7000030C1000030C000DC
:100720000030BF000030BE000030D1000030D000EB
:100730000030CF000030CE00D301E62B5308031960
:10074000A22BA32BC32B0130C2000310C70DC80D71
:10075000C90DCA0DC20BA52B0130C2000310BE0D7E
:10076000BF0DC00DC10DC20BAE2BD11FB82BB92BC5
:10077000BA2B3E140130C2000310CE0DCF0DD00DA8
:10078000D10DC20BBC2B3D084A02031DD12B3C08E6
:100790004902031DD12B3B084802031DD12B3A0807
:1007A0004702031CD42BD52BE42B51173A08C70260
:1007B0003B08031C3B0FC8023C08031C3C0FC9024A
:1007C0003D08031C3D0FCA020130D3071A30530203
:1007D000031CEB2BEC2B9E2B4A08490448044704CE
:1007E0000319F32BF42B132C4E14132C0130C200DD
:1007F0000310BE0DBF0DC00DC10DC20BF82BD11FD4
:10080000022C032C042C3E140130C2000310CE0D28
:10081000CF0DD00DD10DC20B062CFF30CC07031825
:10082000CD0AFF30CD07C01F162C172CF62BD30195
:10083000D11F1B2C1C2C382CFF304E05C200FF3062
:100840004F05C300FF305005C4007F305105C5007F
:10085000450844044304420403192F2C302C332C44
:100860000130D300382C3E1C362C372C382C302C41
:10087000530803193C2C3D2C6E2C0130BE07003070
:1008800003180130BF07003003180130C0070030E3
:1008900003180130C107411C4E2C4F2C6E2C3E0812
:1008A000C2003F08C3004008C4004108C500013031
:1008B000C600450DC50CC40CC30CC20CC60B592C8C
:1008C0004508C1004408C0004308BF004208BE00FC
:1008D0000130CC070318CD0A0030CD074D08803A0F
:1008E000FF0080307F02031D772CFF304C02031C79
:1008F0007A2C7B2C892CFF3083120313CC00003020
:10090000CD000030C1000030C0000030BF0000301A
:10091000BE00831203134D08803AFF0080307F022F
:10092000031D942C01304C020318972C982CA52CF5
:1009300083120313CC01CD010030C1000030C00090
:100940000030BF000030BE00CB01831203134C08FF
:10095000D200521CAC2CAD2CAF2CC017B12C7F3068
:10096000C0055208C2000310420CC1004B08C1046C
:100970005B2B0800831203132308AD008030AD0504
:100980002308A8002807B300A21FC72CC82CC92C15
:10099000331433080319CD2CCE2CDD2C330A031D60
:1009A000D22CD32CDB2C0030A3000030A20000306E
:1009B000A1000030A000A217E52C0030A3000030F9
:1009C000A2000030A1000030A00027088039AD0649
:1009D0002708A8002807B200A61FEF2CF02CF12C46
:1009E000321432080319F52CF62C052D320A031D9A
:1009F000FA2CFB2C032D0030A7000030A60000309D
:100A0000A5000030A400A6170D2D0030A70000306F
:100A1000A6000030A5000030A40032080319112DF3
:100A2000122D172D3308031D162D172D202D0030E4
:100A3000A3000030A2000030A1000030A000FB2F76
:100A40002008F00026080A128A15D9270A128A11EE
:100A5000710883120313B9007008B8003808A800A1
:100A6000A901AA01AB012B08B1002A08B00029088E
:100A7000AF002808AE003908A800A901AA01AB01FF
:100A80002B08B7002A08B6002908B5002808B400CA
:100A90002108F00025080A128A15D9270A128A119E
:100AA000710883120313B9007008B8003808A80051
:100AB000A901AA01AB012808AE07290803110318F0
:100AC000013E0319642DAF072A0803110318013EE4
:100AD00003196B2DB0072B0803110318013E0319EE
:100AE000722DB1073908A800A901AA01AB01280895
:100AF000B407290803110318013E0319802DB50717
:100B00002A0803110318013E0319872DB6072B0885
:100B100003110318013E03198E2DB7072208F000B8
:100B200024080A128A15D9270A128A117108831219
:100B30000313B9007008B8003808A800A901AA0179
:100B4000AB012808AE07290803110318013E031959
:100B5000AA2DAF072A0803110318013E0319B12D6E
:100B6000B0072B0803110318013E0319B82DB10774
:100B70003908A800A901AA01AB012808B40729086F
:100B800003110318013E0319C62DB5072A080311E6
:100B90000318013E0319CD2DB6072B0803110318C6
:100BA000013E0319D42DB7070830A8000310AE0D7D
:100BB000AF0DB00DB10DA80BD62D2108F000240803
:100BC0000A128A15D9270A128A117108831203138F
:100BD000B9007008B8003808A8003908A900AA01AF
:100BE000AB012808AE07290803110318013E0319B9
:100BF000FA2DAF072A0803110318013E0319012E2D
:100C0000B0072B0803110318013E0319082EB10782
:100C10002008F00025080A128A15D9270A128A111D
:100C2000710883120313B9007008B8003808A800CF
:100C30003908A900AA01AB012808AE072908031149
:100C40000318013E0319252EAF072A0803110318C4
:100C5000013E03192C2EB0072B0803110318013E87
:100C60000319332EB1070830A8000310AE0DAF0DE5
:100C7000B00DB10DA80B352E2008F00024080A1283
:100C80008A15D9270A128A11710883120313B90031
:100C90007008B8003808A8003908A900AA01AB01FB
:100CA0002808AE07290803110318013E0319592E1D
:100CB000AF072A0803110318013E0319602EB0077D
:100CC0002B0803110318013E0319672EB1072108F1
:100CD000F00026080A128A15D9270A128A1171080B
:100CE00083120313B9007008B8003808A800390847
:100CF000A900AA01AB012808B407290803110318A9
:100D0000013E0319842EB5072A0803110318013E7A
:100D100003198B2EB6072B0803110318013E031984
:100D2000922EB7072208F00025080A128A15D92743
:100D30000A128A11710883120313B9007008B800EF
:100D40003808A8003908A900AA01AB012808B4078F
:100D5000290803110318013E0319AF2EB5072A080D
:100D600003110318013E0319B62EB6072B08031111
:100D70000318013E0319BD2EB7072208F00026080C
:100D80000A128A15D9270A128A11710883120313CD
:100D9000B9007008B8003808A8003908A900AA01ED
:100DA000AB0108300310A80DA90DAA0DAB0DFF3E35
:100DB000031DD22E2808B407290803110318013E89
:100DC0000319E32EB5072A0803110318013E03197E
:100DD000EA2EB6072B0803110318013E0319F12E62
:100DE000B7072E08A8002F08A9003008AA0031086C
:100DF000AB0018300310AB0CAA0CA90CA80CFF3EDA
:100E0000031DFA2E2808B407290803110318013E10
:100E100003190B2FB5072A0803110318013E031904
:100E2000122FB6072B0803110318013E0319192FBF
:100E3000B7070830A8000310AE0DAF0DB00DB10D0F
:100E4000A80B1B2F33083207A800A901A90D2808F9
:100E5000823EB80029080318013EFF3EB9004D2F1D
:100E60000130A8000310B40DB50DB60DB70DA80BD9
:100E7000322FB11F3C2F3D2F3E2F34140130A800DC
:100E80000310AE0DAF0DB00DB10DA80B402FFF300C
:100E9000B8070318B90AFF30B907B61F502F512FF2
:100EA000302FB201B11F552F562F722FFF302E0554
:100EB000A800FF302F05A900FF303005AA007F30C1
:100EC0003105AB002B082A04290428040319692FD3
:100ED0006A2F6D2F0130B200722F341C702F712FCA
:100EE000722F6A2F32080319762F772FA82F01301F
:100EF000B407003003180130B50700300318013083
:100F0000B607003003180130B707371C882F892F28
:100F1000A82F3408A8003508A9003608AA00370809
:100F2000AB000130AC002B0DAB0CAA0CA90CA80C2B
:100F3000AC0B932F2B08B7002A08B6002908B50080
:100F40002808B4000130B8070318B90A0030B907FF
:100F50003908803AFF0080307F02031DB12FFF3037
:100F60003802031CB42FB52FC02F7F308312031318
:100F7000B7008030B6000030B5000030B400F12F6B
:100F8000831203133908803AFF0080307F02031D6B
:100F9000CB2F013038020318CE2FCF2FDB2F00309C
:100FA00083120313B7000030B6000030B5000030E4
:100FB000B400AD01F12F831203133808B300FF30E2
:100FC000B405FF30B5057F30B6050030B705331CDA
:100FD000EA2FEB2FEC2FB6173308A8000310280CCC
:100FE000B7002D08B7043708A3003608A20035085B
:100FF000A1003408A000080083010A128A11F82811
:10100000FF1B0A2883137F1883170008840A03191B
:10101000FF0A080008308A000408840A82070034A6
:10102000543465346E34733461346F343A3420345C
:0C10300000342034563400342C340034DA
:101EBE009930831203139F008230831603139F0001
:101ECE000800C530831203139F0518309F041F1599
:101EDE001F19722F732F6F2F1E08F1008316031315
:101EEE001E08F0000800F200720883120313880027
:101EFE00091089142130F1007630F000F00B852F97
:101F0E00F10B852F00008312031389100800F200D5
:101F1E007208831203138800091489142130F1000A
:101F2E007630F000F00B992FF10B992F00008312F1
:101F3E0003138910080038300A128A157A270A12FC
:101F4E008A1506300A128A157A270A128A150C305B
:101F5E000A128A157A270A128A1501300A128A1570
:101F6E007A270A128A150800F601D22F760873070F
:101F7E00840074080318740A83120313FF000A12F4
:101F8E008A1500200A128A150A128A158E270A123D
:101F9E008A150130F60775087602031CD72FD82F45
:101FAE00BD2F0800F800F401F5017008F200F301EE
:101FBE007208F6007308F700781CE62FE72FED2F56
:101FCE007608F4070318F50A7708F50701300310B1
:101FDE00F60DF70DFF3E031DEE2F0310F80C7808DB
:101FEE00031DFA2FFB2FE32F7508F1007408F00084
:021FFE000800D9
:02400E00BA3DB9
:00000001FF
