:100000000A128A11FC2F00308A000408840A820731
:1000100000344434693467342E3420345434653425
:1000200063346C3461343A3420340034563441340F
:100030004C344F34523420340034533441344C3433
:0600400056344F34003479
:100BA800FF308316031385000F3086000711880174
:100BB80089010800F0007008831203178D0083165E
:100BC80003170C14831203170C080800F2007208AC
:100BD800831203138800091089142130F10076303C
:100BE800F000F00BF52DF10BF52D00008312031327
:100BF80089100800F2007208831203138800091490
:100C080089142130F1007630F000F00B092EF10B39
:100C1800092E00008312031389100800F501232E02
:100C28007508730784000A128A1103200A128A11B0
:100C38000A128A11FE250A128A110130F507740872
:100C48007502031C282E292E142E0800F100831685
:100C580003178C18302E312E2B2E71088312031790
:100C68008D0070088C00831603170C158B135530F4
:100C78008D00AA308D008C148B170C118C10080075
:100C880038300A128A11EA250A128A1106300A1225
:100C98008A11EA250A128A110C300A128A11EA25E9
:100CA8000A128A1101300A128A11EA250A128A11D7
:100CB80080300A128A11EA250A128A110D30F500CD
:100CC800AF30F400B630F300F30B682EF40B682E47
:100CD800F50B682E0000080001300A128A11EA2577
:100CE8000A128A1180300A128A11EA250A128A1118
:100CF8000E30F3000630F4000A128A1112260A1286
:100D08008A11C0300A128A11EA250A128A1115308E
:100D1800F3000530F4000A128A1112260A128A1109
:100D28000D30F800AF30F700B630F600F60B9A2E0B
:100D3800F70B9A2EF80B9A2E000001300A128A112E
:100D4800EA250A128A1180300A128A11EA250A1243
:100D58008A110130F3000C30F4000A128A111226AD
:100D68000A128A1108000A128A11D4250A128A1155
:100D78000A128A1144260A128A11FC01FD018030E8
:100D88000A128A11EA250A128A110130F3000C307E
:100D9800F4000A128A1112260A128A110A128A11FA
:100DA8003A270A128A11FC0046307C06031DDD2E04
:100DB800DE2EEC2E0A128A1170260A128A117D087C
:100DC800F00010300A128A112A260A128A11D22E2D
:100DD80045307C06031DF12EF22E282FC0300A1252
:100DE8008A11EA250A128A1110300A128A11DE25A0
:100DF8000A128A110A128A11FE250A128A110D3066
:100E0800FB00AF30FA00B630F900F90B092FFA0BE6
:100E1800092FFB0B092F000001300A128A11EA255D
:100E28000A128A1180300A128A11EA250A128A11D6
:100E38000130F3000C30F4000A128A1112260A124B
:100E48008A117C08FD00D22E7C08FD007C080A125D
:100E58008A11FE250A128A118C300A128A11EA2593
:100E68000A128A11D22E0A128A110028F001EF30D4
:100E78008312031386000618422F432F4A2F45304A
:100E8800F000061C482F492F452FFA2F86184D2FA2
:100E98004E2F552F3030F000861C532F542F502FD3
:100EA800FA2F0619582F592F602F4630F000061DCB
:100EB8005E2F5F2F5B2FFA2F8619632F642F6B2FFE
:100EC8004430F000861D692F6A2F662FFA2FDF3015
:100ED80086000618702F712F782F3730F000061C07
:100EE800762F772F732FFA2F86187B2F7C2F832F3F
:100EF8003830F000861C812F822F7E2FFA2F06199A
:100F0800862F872F8E2F3930F000061D8C2F8D2FBE
:100F1800892FFA2F8619912F922F992F4330F0009D
:100F2800861D972F982F942FFA2FBF30860006180A
:100F38009E2F9F2FA62F3430F000061CA42FA52F1C
:100F4800A12FFA2F8618A92FAA2FB12F3530F0001C
:100F5800861CAF2FB02FAC2FFA2F0619B42FB52F40
:100F6800BC2F3630F000061DBA2FBB2FB72FFA2F33
:100F78008619BF2FC02FC72F4230F000861DC52FFE
:100F8800C62FC22FFA2F7F3086000618CC2FCD2F00
:100F9800D42F3130F000061CD22FD32FCF2FFA2FA9
:100FA8008618D72FD82FDF2F3230F000861CDD2F80
:100FB800DE2FDA2FFA2F0619E22FE32FEA2F33302C
:100FC800F000061DE82FE92FE52FFA2F8619ED2FDF
:100FD800EE2FF52F4130F000861DF32FF42FF02F60
:100FE800FA2F70080319F92FFA2F3B2F7008080001
:080FF80083010A128A11B72ED1
:02400E00BA3DB9
:00000001FF
