:060000000A128A110E280D
:10000800FE00030EF4000A08F5007F08F6000A1245
:100018008A1119280A128A111128F001F101F20136
:10002800F30183010A128A1162280B1D1C281D285E
:100038003B288312031381010130F2070318F30AE6
:100048000030F3077308803AFF0080307F02031DF9
:100058002F284D307202031C322833283A280A12FE
:100068008A1144200A128A11F201F3010B11760851
:10007800FF0075088A00740E8300FE0E7E0E0900CC
:100088007018472848284D28013083120313880028
:1000980050288312031388010130F0070318F10A6E
:1000A8000030F107FA307006031D5E28710A031D3F
:1000B8005E285F286128F001F1010800FE308316F0
:1000C800031388008312031388010A128A1172200D
:1000D8000A128A116E280A128A110E28831603132F
:1000E80081128111073081048312031381018B1659
:0600F8000B118B1708003C
:02400E00BA3DB9
:00000001FF
