:100000000A128A11EC2FFF1B0D2883137F18831708
:100010000008840A0319FF0A080000308A00040857
:10002000840A8207003443344C3449345134553403
:10003000453453343A34003425343034353475344F
:0200400000348A
:100736000800831203130F08F1000E08F0000800EA
:1007460064008001840A0406031900340406A42BFD
:100756008730831203139000FF308F00F0308E0035
:100766000800F20072088312031388000910891426
:100776002130F1007630F000F00BBF2BF10BBF2BD0
:1007860000008312031389100800F2007208831216
:1007960003138800091489142130F1007630F00023
:1007A600F00BD32BF10BD32B00008312031389100C
:1007B600080038300A128A11B4230A128A11063048
:1007C6000A128A11B4230A128A110C300A128A11EB
:1007D600B4230A128A1101300A128A11B4230A12AA
:1007E6008A110800F6010C2C760873078400740839
:1007F6000318740A83120313FF000A128A110320D6
:100806000A128A110A128A11C8230A128A110130A1
:10081600F60775087602031C112C122CF72B08001C
:10082600831203134608C800252C4408B80045085F
:10083600B9004830BA004708BB000A128A113A27A5
:100846000A128A1183120313480884000A128A11B5
:100856000D200A128A11003A031D322C332C182C53
:10086600C401C50108004B3083120313CE004908AA
:10087600CF000030D000D101D201D801D9014F30CC
:10088600C4000030C5004A08C6004E30C7000A1230
:100896008A1113240A128A11831203135108490775
:1008A600CD004D088400831380010800F401F50192
:1008B600701C5E2C5F2C652C7208F4070318F50A71
:1008C6007308F50701300310F20DF30DFF3E031D0B
:1008D600662C01300310F10CF00CFF3E031D6D2C4D
:1008E60070087104031D782C792C5B2C7508F100B7
:1008F6007408F000080083120313A601A7019B2CBD
:100906002508A300A4012308F0002408F10021080B
:10091600F2002208F3000A128A11A0260A128A118E
:10092600013083120313A6070318A70A0030A7078E
:1009360026082007A3002308840083130008A500C7
:100946002508031DA72CA82C832C08007008710409
:100956000319AE2CAF2CDC2C0130F400BB2C01307B
:100966000310F00DF10DFF3E031DB32C0130F4070B
:10097600F11FBE2CBF2CB22C71087302031DC52CAF
:1009860070087202031CC82CC92CCF2C7008F20206
:100996007108031CF303F30201300310F10CF00C91
:1009A600FF3E031DD02C0130F402031DDB2CDC2C92
:1009B600BF2C7308F1007208F0000800F401F5017D
:1009C600700871040319E82CE92C1E2D0130F6007D
:1009D600F52C01300310F00DF10DFF3E031DED2C3B
:1009E6000130F607F11FF82CF92CEC2C013003101E
:1009F600F40DF50DFF3E031DFA2C71087302031D5D
:100A0600062D70087202031C092D0A2D112D70087F
:100A1600F2027108031CF303F3027414013003108D
:100A2600F10CF00CFF3E031D122D0130F602031DE2
:100A36001D2D1E2DF92C7508F1007408F000080014
:100A4600FA01FB01760884008313000884000A1269
:100A56008A110D200A128A112A3A031D332D342DCC
:100A6600602D76088400013080077708840000082E
:100A7600F80002308007780884000008FA00840A2B
:100A86000008FB00712D7B08F1007A08F0000A309F
:100A9600F2000030F3000A128A1159240A128A1150
:100AA60079087007FA000030031801307107FB005F
:100AB60076088400013083138007760884000008D6
:100AC60084000A128A110D200A128A11D03EF900FA
:100AD6000A307902031C702D712D462D7B08F70014
:100AE6007A08F600080083120313681C7B2D7C2D00
:100AF600872D2A08A0002808A1002908A2000A12AA
:100B06008A117E240A128A1183120313AC1F8C2DBC
:100B16008D2D8F2DAB01AC01AD01AE01A92D20307D
:100B2600F0000030F100831203132808F2002908B0
:100B3600F3000A128A11A0260A128A1101308312C2
:100B46000313AD070318AE0A0030AE072E08803A2D
:100B5600FD002C08803A7D02031DB32D2B082D02C3
:100B6600031CB62DB72D922D831203136818BC2DC6
:100B7600BD2DC82D2A08A0002808A1002908A2001A
:100B86000A128A117E240A128A110800FF3083167F
:100B960003138600FE308700890188010A128A1134
:100BA600DC230A128A110A128A11AB230A128A114D
:100BB60080300A128A11B4230A128A110130F30016
:100BC6008030F4000830F5000A128A11F5230A1263
:100BD6008A11C0300A128A11B4230A128A115A30B5
:100BE60083120313C9000A30CA000A128A119C2311
:100BF6000A128A11710883120313CC007008CB0005
:100C06000A128A1136240A128A115A30F300003069
:100C1600F4000530F5000A128A11F5230A128A112A
:100C260083120313871C182E192EDB2D8E018718AD
:100C36001D2E1E2E1A2EDB2D0A128A1100280130B7
:100C460083120313B3006508B5006408B4001F30AF
:100C5600B6000030B70083160313BF01682EFF30BD
:100C6600B6070318B70AFF30B7073608A03E840058
:100C76000A30F0000030F1003208F3003108F200CB
:100C86000A128A11A9240A128A117008303E8313A7
:100C9600800083120313B301FF30B4070318B50AAB
:100CA600FF30B5070A30F0000030F1003208F300DB
:100CB6003108F2000A128A11E1240A128A11710817
:100CC60083120313B2007008B1008312360837048A
:100CD60003196E2E6F2E8D2E31083204031D742ECD
:100CE600752E322E3308031D792E7A2E322E3508B4
:100CF600803AFF0080307F02031D832E01303402CC
:100D0600031C862E872E8D2E83120313E8188C2E35
:100D16008D2E322E831203132F08A8003008A90047
:100D26003608A03EAA003508AC003408AB000A120B
:100D36008A1176250A128A110800720873040319AB
:100D4600A52EA62EAC2E72087304031DAB2EAC2E58
:100D5600B32E70080A128A119B230A128A11392FA0
:100D66007208093EF40073080318013E003EF500C0
:100D7600740884008317751C83130008F600840A20
:100D86000008F700760877040319CA2ECB2EFD2E2D
:100D96007208093EF40073080318013E003EF50090
:100DA600740884008317751C83130008F600840AF0
:100DB6000008F7007208023EF80073080318013EA7
:100DC600003EF900780884008317791C8313000815
:100DD600FA00840A0008FB007B08803AFC007708CA
:100DE600803A7C02031DF92E76087A020318FC2E3F
:100DF600FD2E392F720884008317731C8313000895
:100E0600F400840A0008F5007208023EF600730832
:100E16000318013E003EF700760884008317771C0E
:100E2600831300087407F9007508F8000318F80A18
:100E3600801F1E2FF8037808FA00790884008317AC
:100E46007A1C8313700880007208023EF40073084F
:100E56000318013E003EF500740884008317751CD4
:100E6600831301308007840A0318800A080083125E
:100E760003133A0884008313000884000A128A11B7
:100E86000D200A128A11253A031D4A2F4B2FD22F05
:100E96003A08840001308007E401E5010030E800EB
:100EA600FF30E600FF30E700C2016F2FE8143A0872
:100EB6008400013080076F2F0130C2006F2F3A087F
:100EC6008400000884000A128A110D200A128A1171
:100ED600303A0319592F5F2F42080319732F742FC5
:100EE600622F3A08F6003B08F7000A128A112325FA
:100EF6000A128A11770883120313E5007608E400C4
:100F0600E51F862F872F8D2F6814E409E509E40A6B
:100F16000319E50A3A08840083130008C30043084E
:100F260084000A128A110D200A128A11753A031DCD
:100F36009D2F9E2FCA2F3B0884000008BC0002305C
:100F460080073C0884000008BE00840A0008BF0031
:100F56003A0884004308013E8000BF2F3808AF00DE
:100F66003908B0003F08B2003E08B1000A128A11E3
:100F760022260A128A11EB2F430884000A128A11CC
:100F86000D200A128A11753A0319B12FCA2F83123E
:100F960003133A088400013083138007EB2F3A08C5
:100FA6008400000884000A128A110D200A128A1190
:100FB600BC00BD013C08F0003D08F1003808F20015
:100FC6003908F3000A128A11A0260A128A11CA2FBA
:100FD600080083120313E401E501E601E701E801D5
:100FE6008313A0308400C0300A128A11A3230A1288
:0A0FF6008A1183010A128A11C92D25
:02400E00BA3DB9
:00000001FF
