:060000000A128A11122809
:10000800FE00030E83120313D4000408D5000A0867
:10001800D6007F08D7000A128A11AA2E0A128A115E
:10002800152883135830840065300A128A157E25F6
:100038000A128A11A0308400B1300A128A157E256E
:100048000A128A1183010A128A11C02F831203131C
:1000580023088039AD002308A8002807B300A21F91
:100068003628372838283314330803193C283D2804
:100078004C28330A031D412842284A280030A3008F
:100088000030A2000030A1000030A000A2175428C0
:100098000030A3000030A2000030A1000030A00012
:1000A80027088039FF007F08AD062708A800280721
:1000B800B200A61F6028612862283214320803198A
:1000C800662867287628320A031D6B286C2874284E
:1000D8000030A7000030A6000030A5000030A400C2
:1000E800A6177E280030A7000030A6000030A50023
:1000F8000030A4003208031982288328882833088E
:10010800031D8728882891280030A3000030A2000A
:100118000030A1000030A0006E2B2008F000260857
:100128000A128A15A5260A128A1171088312031366
:10013800B9007008B8003808A800A901AA01AB01E5
:100148002B08B1002A08B0002908AF002808AE0023
:100158003908A800A901AA01AB012B08B7002A0891
:10016800B6002908B5002808B4002108F0002508C1
:100178000A128A15A5260A128A1171088312031316
:10018800B9007008B8003808A800A901AA01AB0195
:100198002808AE07290803110318013E0319D528BA
:1001A800AF072A0803110318013E0319DC28B0071A
:1001B8002B0803110318013E0319E328B107390876
:1001C800A800A901AA01AB012808B407290803114E
:1001D8000318013E0319F128B5072A08031103186B
:1001E800013E0319F828B6072B0803110318013E2E
:1001F8000319FF28B7072208F00024080A128A15F5
:10020800A5260A128A11710883120313B90070080F
:10021800B8003808A800A901AA01AB012808AE0750
:10022800290803110318013E03191B29AF072A08DF
:1002380003110318013E03192229B0072B080311E3
:100248000318013E03192929B1073908A800A90193
:10025800AA01AB012808B407290803110318013EB5
:1002680003193729B5072A0803110318013E031992
:100278003E29B6072B0803110318013E0319452927
:10028800B7070830A8000310AE0DAF0DB00DB10DC3
:10029800A80B47292108F00024080A128A15A52668
:1002A8000A128A11710883120313B9007008B80082
:1002B8003808A8003908A900AA01AB012808AE0728
:1002C800290803110318013E03196B29AF072A08EF
:1002D80003110318013E03197229B0072B080311F3
:1002E8000318013E03197929B1072008F0002508F1
:1002F8000A128A15A5260A128A1171088312031395
:10030800B9007008B8003808A8003908A900AA017F
:10031800AB012808AE07290803110318013E031989
:100328009629AF072A0803110318013E03199D29CE
:10033800B0072B0803110318013E0319A429B107BC
:100348000830A8000310AE0DAF0DB00DB10DA80B0D
:10035800A6292008F00024080A128A15A5260A12E0
:100368008A11710883120313B9007008B80038089D
:10037800A8003908A900AA01AB012808AE07290876
:1003880003110318013E0319CA29AF072A080311EC
:100398000318013E0319D129B0072B0803110318CC
:1003A800013E0319D829B1072108F00026080A12CE
:1003B8008A15A5260A128A11710883120313B90037
:1003C8007008B8003808A8003908A900AA01AB01CC
:1003D8002808B407290803110318013E0319F52951
:1003E800B5072A0803110318013E0319FC29B607AB
:1003F8002B0803110318013E0319032AB707220823
:10040800F00025080A128A15A5260A128A11710811
:1004180083120313B9007008B8003808A800390817
:10042800A900AA01AB012808B40729080311031879
:10043800013E0319202AB5072A0803110318013EB3
:100448000319272AB6072B0803110318013E0319BD
:100458002E2AB7072208F00026080A128A15A526B0
:100468000A128A11710883120313B9007008B800C0
:100478003808A8003908A900AA01AB010830031000
:10048800A80DA90DAA0DAB0DFF3E031D432A280890
:10049800B407290803110318013E0319542AB507A4
:1004A8002A0803110318013E03195B2AB6072B0813
:1004B80003110318013E0319622AB7072E08A80082
:1004C8002F08A9003008AA003108AB001830031023
:1004D800AB0CAA0CA90CA80CFF3E031D6B2A28081C
:1004E800B407290803110318013E03197C2AB5072C
:1004F8002A0803110318013E0319832AB6072B089B
:1005080003110318013E03198A2AB7070830A80007
:100518000310AE0DAF0DB00DB10DA80B8C2A33082A
:100528003207A800A901A90D2808823EB8002908A9
:100538000318013EFF3EB900BE2A0130A80003108F
:10054800B40DB50DB60DB70DA80BA32AB11FAD2A72
:10055800AE2AAF2A34140130A8000310AE0DAF0D37
:10056800B00DB10DA80BB12AFF30B8070318B90AAE
:10057800FF30B907B61FC12AC22AA12AB201B11F8A
:10058800C62AC72AE32AFF302E05A800FF302F0508
:10059800A900FF303005AA007F303105AB002B08D9
:1005A8002A04290428040319DA2ADB2ADE2AB201DC
:1005B800B20AE32A341CE12AE22AE32ADB2A3208B7
:1005C8000319E72AE82A192B0130B4070030031869
:1005D8000130B507003003180130B60700300318A2
:1005E8000130B707371CF92AFA2A192B3408A80052
:1005F8003508A9003608AA003708AB000130AC005E
:100608002B0DAB0CAA0CA90CA80CAC0B042B2B08BB
:10061800B7002A08B6002908B5002808B400013038
:10062800B8070318B90A0030B9073908803AFF003B
:1006380080307F02031D222BFF303802031C252B3C
:10064800262B312B7F3083120313B7008030B6007E
:100658000030B5000030B400622B83120313390850
:10066800803AFF0080307F02031D3C2B01303802A6
:1006780003183F2B402B4C2B003083120313B70079
:100688000030B6000030B5000030B400AD01622B78
:10069800831203133808B300FF30B405FF30B505E3
:1006A8007F30B6050030B705331C5B2B5C2B5D2B08
:1006B800B6173308A8000310280CB7002D08FF0050
:1006C8007F08B7043708A3003608A2003508A10040
:1006D8003408A00008008312031341088039CB00B6
:1006E8004108C2004207D200C01F7B2B7C2B7D2B08
:1006F800521452080319812B822B922B520A031D84
:10070800862B872B8F2B0030C1000030C0000030B3
:10071800BF000030BE00C017C1019A2B0030C100D5
:100728000030C0000030BF000030BE003D088039F6
:10073800FF007F08CB063D08C2004207D300BC1F5C
:10074800A62BA72BA82B531453080319AC2BAD2B9E
:10075800BD2B530A031DB12BB22BBA2B0030BD00A1
:100768000030BC000030BB000030BA00BC17BD012F
:10077800C52B0030BD000030BC000030BB0000308D
:10078800BA003D083C043B043A04031DCC2BCD2B96
:10079800E62B0030C1000030C0000030BF00003040
:1007A800BE008030C0047F30C1044B08FF007F08C2
:1007B800C1044108BD004008BC003F08BB003E081A
:1007C800BA003D2D5208031DEA2BEB2BF42B003009
:1007D800BD000030BC000030BB000030BA003D2D29
:1007E8005208C200C3014308C50053084202C400AE
:1007F800031CC50344087F3ECC0045080318013E8E
:10080800003ECD004108CA004008C9003F08C800A2
:100818003E08C7000030C1000030C0000030BF00F3
:100828000030BE000030D1000030D0000030CF00D2
:100838000030CE00D3016A2C53080319242C252C30
:10084800452C0130C2000310C70DC80DC90DCA0DD3
:10085800C20B272C0130C2000310BE0DBF0DC00D06
:10086800C10DC20B302CD11F3A2C3B2C3C2C3E1412
:100878000130C2000310CE0DCF0DD00DD10DC20B2B
:100888003E2C3D084A02031D532C3C084902031D17
:10089800532C3B084802031D532C3A084702031CFB
:1008A800562C572C662C51173A08C7023B08031CD4
:1008B8003B0FC8023C08031C3C0FC9023D08031C3F
:1008C8003D0FCA020130FF007F08D3071A305302D8
:1008D800031C6F2C702C202C4A0849044804470438
:1008E8000319772C782C972C4E14972C0130C200C2
:1008F8000310BE0DBF0DC00DC10DC20B7C2CD11F46
:10090800862C872C882C3E140130C2000310CE0D93
:10091800CF0DD00DD10DC20B8A2CFF30CC07031898
:10092800CD0AFF30CD07C01F9A2C9B2C7A2CD301FF
:10093800D11F9F2CA02CBC2CFF304E05C200FF30CD
:100948004F05C300FF305005C4007F305105C50076
:1009580045084404430442040319B32CB42CB72CAF
:10096800D301D30ABC2C3E1CBA2CBB2CBC2CB42CF7
:1009780053080319C02CC12CF22C0130BE070030DB
:1009880003180130BF07003003180130C0070030DA
:1009980003180130C107411CD22CD32CF22C3E087D
:1009A800C2003F08C3004008C4004108C500013028
:1009B800C600450DC50CC40CC30CC20CC60BDD2CFF
:1009C8004508C1004408C0004308BF004208BE00F3
:1009D8000130CC070318CD0A0030CD074D08803A06
:1009E800FF0080307F02031DFB2CFF304C02031CEC
:1009F800FE2CFF2C0D2DFF3083120313CC0000308A
:100A0800CD000030C1000030C0000030BF00003011
:100A1800BE00831203134D08803AFF0080307F0226
:100A2800031D182D01304C0203181B2D1C2D292DD8
:100A380083120313CC01CD010030C1000030C00087
:100A48000030BF000030BE00CB01831203134C08F6
:100A5800D200521C302D312D332DC017372D7F3049
:100A6800FF007F08C0055208C2000310420CC100F5
:100A7800D92B0800F80078080319432D442D582D68
:100A8800F31F472D482D582D7009FA007109FB00F6
:100A98007209FC007309FD00FA0A0319FB0A03191D
:100AA800FC0A0319FD0A602D7308FD007208FC009A
:100AB8007108FB007008FA0073087204710470046E
:100AC800031D672D682D712D0030F3000030F200F2
:100AD8000030F1000030F000F52D9630F900812D3E
:100AE8000130FF007F08F90701300310FD0CFC0CF2
:100AF800FB0CFA0CFF3E031D792DFE307D05031D0E
:100B0800862D872D742DA32D0130FF007F08F9074E
:100B18000130FA07003003180130FB0700300318D2
:100B28000130FC07003003180130FD0701300310C5
:100B3800FD0CFC0CFB0CFA0CFF3E031D9B2DFF303B
:100B48007D05031DA82DA92D882DB52D0130F9028D
:100B58000130F4000310FA0DFB0DFC0DFD0DF40B34
:100B6800AE2DFC1BB82DB92DBF2D0230790203180C
:100B7800BE2DBF2DAA2D7918C22DC32DCB2DFF3028
:100B8800FA05FF30FB057F30FC05FF30FD0503103B
:100B9800F90C7908F400F501F601F7011830031093
:100BA800F40DF50DF60DF70DFF3E031DD32D74085A
:100BB800FA047508FB047608FC047708FD04780835
:100BC8000319E72DE82DED2DF31FEB2DEC2DED2D61
:100BD800FD177D08F3007C08F2007B08F1007A0815
:100BE800F0000800831203134708A7004608A60070
:100BF8004508A5004408A4004230A300C830A2005C
:100C08000030A1000030A0000A128A112A200A121E
:100C18008A11831203132308BD002208BC0021088F
:100C2800BB002008BA000A128A1148270A128A1142
:100C3800831203133B08CD003A08CC006430F5005A
:100C48000030F6004D08F8004C08F7000A128A1523
:100C580057270A128A117508303E83120313C800F9
:100C68000A30F5000030F6004D08F3004C08F20099
:100C78006430F0000030F1000A128A151D270A12AC
:100C88008A117108F8007008F7000A128A155727A8
:100C98000A128A117508303E83120313C9000A30FC
:100CA800F0000030F1004D08F3004C08F2000A1281
:100CB8008A151D270A128A117008303E8312031301
:100CC800CA0088300A128A153B260A128A1148304F
:100CD800F4000030F500F601F60A0A128A151B2600
:100CE8000A128A1106300A128A153B260A128A113C
:100CF8001130F4008030F500F601F60A0A128A1560
:100D08001B260A128A1106300A128A153B260A1275
:100D18008A114930F4000030F5000230F6000A125A
:100D28008A151B260A128A1106300A128A153B26D2
:100D38000A128A110E30F4008030F5000230F600F5
:100D48000A128A151B260A128A1108008C1CAD2E5D
:100D5800AE2ECF2E0130DE070318DF0A0030DF0782
:100D68008C10E4305E065F04031DBB2EBC2ECF2E14
:100D78000310861C03140318C22EC62E83120313F5
:100D88008614C92E8312031386100A300A128A1594
:100D9800DD250A128A118B1CD22ED32E3B2F0A1264
:100DA8008A15AE250A128A11710883120313E1000D
:100DB8007008E0004430BD007F30BC00C030BB008C
:100DC8000030BA004030A300A030A2000030A100DB
:100DD8000030A0006008F0006108F1000030F11B4D
:100DE800FF30F200F30001300A128A113E250A1280
:100DF8008A11730883120313A7007208A6007108EA
:100E0800A5007008A4000A128A112A200A128A1161
:100E1800831203132308C1002208C0002108BF0061
:100E28002008BE000A128A116F230A128A1183123F
:100E380003133D08DB003C08DA003B08D9003A08F8
:100E4800D8005B08C7005A08C6005908C5005808EA
:100E5800C4000A128A11F6250A128A118312031392
:100E6800DE01DF018614831603138C148B108312A2
:100E780003135708FF0056088A0055088400540ECB
:100E88008300FE0E7E0E09000310831203133C0D2F
:100E98003D0DC3004308031D522F532F5C2F003014
:100EA800BD000030BC000030BB000030BA00BF2FCE
:100EB8003A08BE003B08BF003C08C0003D08C1001E
:100EC8001F300310C10CC00CBF0CBE0CFF3E031D2D
:100ED800652F3E08C200BC17FF30BA05FF30BB05BE
:100EE800FF30BC050030BD059630C302C31F7D2FFF
:100EF8007E2F982F4308803A973E0318842F852F1A
:100F0800862F532F01300310BD0CBC0CBB0CBA0C40
:100F1800FF3E031D872F0130FF007F08C307031D15
:100F2800962F972F862FAF2F20304302031C9D2F1B
:100F38009E2FAA2F532F0130BE000310BA0DBB0DF0
:100F4800BC0DBD0DBE0BA12F0130C3024308031D0C
:100F5800AE2FAF2F9F2F42080319B32FB42FBF2FE7
:100F6800BA09BB09BC09BD09BA0A0319BB0A0319A6
:100F7800BC0A0319BD0A08008316031388018901F6
:100F8800013086008312031386100A128A159B27E4
:100F98000A128A1180300A128A15F3260A128A1157
:100FA800013083160313B5008030B6000830B7004F
:100FB8000A128A1581260A128A110A128A158625AA
:100FC8000A128A110A128A1599250A128A117F3083
:100FD8008312031392004830831603138100D8301C
:100FE8008B00FF3092008C10831203138C10FB2FA0
:060FF8000A128A11122802
:10100000FF1B0A2883137F1883170008840A03191B
:10101000FF0A080008308A000408840A82070034A6
:10102000543465346E34733461346F343A3420345C
:1010300000346F346B34213400342034563400349F
:041040002C34003418
:101AFC0064008001840A04060319003404067F2D57
:101B0C009930831203139F008230831603139F00B6
:101B1C000800F000831203130C1E952D962D902DAA
:101B2C0070089900080083160313071787171F30D6
:101B3C0099001812181583120313981783160313A0
:101B4C009816831203131816831603138C160800A9
:101B5C00C530FF007F08831203139F051830FF0068
:101B6C007F089F041F151F19BC2DBD2DB92D1E08F4
:101B7C00F100831603131E08F0000800F100F0308A
:101B8C007105F0008312031308080F3970048800E4
:101B9C0089141030F000F00BD12D000083120313C8
:101BAC0089101030F000F00BD92D00000800F10066
:101BBC00EF2D710884000A128A150A200A128A1560
:101BCC000A128A158F250A128A150130FF007F0828
:101BDC00F107710884000A128A150A200A128A1564
:101BEC00003A031DFA2DFB2DDF2D0800F3008312A4
:101BFC000313091473080A128A15C4250A128A15CC
:101C0C007308F20003300310F20DFF3E031D092E82
:101C1C000310720D0A128A15C4250A128A15A630F1
:101C2C00F200F20B172E00000800F701342E770893
:101C3C007407840075080318750A83120313FF00D8
:101C4C000A128A1500200A128A150A128A15FC2516
:101C5C000A128A150130FF007F08F7077608770211
:101C6C00031C392E3A2E1D2E0800F4008312031388
:101C7C00091074080A128A15C4250A128A157408E8
:101C8C00F20003300310F20DFF3E031D482E03102B
:101C9C00720D0A128A15C4250A128A150D30F3002A
:101CAC00FB30F200F20B582EF30B582E5D2E080071
:101CBC0083160313B200F0303205B1008312031304
:101CCC0008080F3983160313310483120313880099
:101CDC0089140F3083160313B100B10B732E762EBB
:101CEC008312031389100F3083160313B100B10B49
:101CFC007D2E802E080083160313B8019E2E380803
:101D0C003507840036080318360A83120313FF00C4
:101D1C000A128A1500200A128A150A128A15CC2674
:101D2C000A128A150130FF007F0883160313B807C7
:101D3C0037083802031CA32EA42E852E0800F800A9
:101D4C00F401F5017008F200F3017208F600730853
:101D5C00F700781CB22EB32EB92E7608F4070318B0
:101D6C00F50A7708F50701300310F60DF70DFF3E65
:101D7C00031DBA2E0310F80C7808031DC62EC72EAF
:101D8C00AF2E7508F1007408F000080083160313D9
:101D9C00B4008312031309148316031334080A12B4
:101DAC008A155E260A128A15831603133408B300AB
:101DBC0003300310B30DFF3E031DDF2E0310330D54
:101DCC000A128A155E260A128A15A5308316031389
:101DDC00B300B30BEF2EF22E080083160313B500DD
:101DEC008312031309108316031335080A128A157C
:101DFC005E260A128A15831603133508B3000330C6
:101E0C000310B30DFF3E031D062F0310330D0A12F2
:101E1C008A155E260A128A150D3083160313B40038
:101E2C00FB30B300B30B182FB40B182F080070083D
:101E3C0071040319222F232F522FF401F40A312F8E
:101E4C0001300310F00DF10DFF3E031D272F013063
:101E5C00FF007F08F407F11F342F352F262F710850
:101E6C007302031D3B2F70087202031C3E2F3F2F81
:101E7C00452F7008F2027108031CF303F3020130C2
:101E8C000310F10CF00CFF3E031D462F0130F40241
:101E9C00031D512F522F352F7308F1007208F000DB
:101EAC000800F901FA017508760403195E2F5F2FFB
:101EBC00962FFB01FB0A6D2F01300310F50DF60D6B
:101ECC00FF3E031D632F0130FF007F08FB07F61F49
:101EDC00702F712F622F01300310F90DFA0DFF3E98
:101EEC00031D722F76087802031D7E2F750877026A
:101EFC00031C812F822F892F7508F7027608031C8B
:101F0C00F803F802791401300310F60CF50CFF3EBF
:101F1C00031D8A2F0130FB02031D952F962F712F65
:101F2C007A08F6007908F50008008230831603134E
:101F3C00B700DD30B600B60BA12FB70BA12F303098
:101F4C000A128A155E260A128A152130831603138B
:101F5C00B7007530B600B60BB12FB70BB12FB62F3B
:101F6C0030300A128A155E260A128A15A53083169D
:101F7C000313B600B60BC02FC32F30300A128A15CC
:101F8C005E260A128A15A53083160313B600B60B0B
:101F9C00CD2FD02F20300A128A155E260A128A15F0
:101FAC00A53083160313B600B60BDA2FDD2F2830BD
:101FBC000A128A15F3260A128A1506300A128A1595
:101FCC00F3260A128A150C300A128A15F3260A1205
:101FDC008A1501300A128A15F3260A128A150D3059
:101FEC0083160313B700FB30B600B60BFB2FB70BF1
:041FFC00FB2F0800AF
:02400E00BA3DB9
:00000001FF
