:020000001228C4
:1000080009000830A200FF30A100FF30A000A00BBB
:100018000B28A10B0928A20B0928080085018601D5
:1000280087018801890183160313FE308500FF309C
:100038008600FF30870000308800EF308900831287
:100048000313FF308800A301A40106182728052000
:100058000618272830282728AA3088000520FF30CE
:1000680088000520553088000520FF3088000520CD
:100078000230A4000830A300880C03100520A30B4D
:100088004028FF3088000520A40B3E284B2806187E
:100098004B28052006184B2852284B280F3088007B
:1000A8000520FF3088000520F03088000520FF304B
:1000B800880005200830A300880C0520A30B6028C1
:1000C8000830A300880D0520A30B6628FF308800A0
:0400D80005202728B0
:02400E003A3D39
:00000001FF
